{
  "contractName": "Election",
  "abi": [
    {
      "inputs": [
        {
          "internalType": "string[]",
          "name": "_nda",
          "type": "string[]"
        },
        {
          "internalType": "uint256[]",
          "name": "_se",
          "type": "uint256[]"
        },
        {
          "internalType": "string[]",
          "name": "_candidates",
          "type": "string[]"
        }
      ],
      "payable": false,
      "stateMutability": "nonpayable",
      "type": "constructor"
    },
    {
      "constant": true,
      "inputs": [],
      "name": "algorithm",
      "outputs": [
        {
          "internalType": "string",
          "name": "",
          "type": "string"
        }
      ],
      "payable": false,
      "stateMutability": "view",
      "type": "function"
    },
    {
      "constant": true,
      "inputs": [
        {
          "internalType": "uint256",
          "name": "",
          "type": "uint256"
        }
      ],
      "name": "candidates",
      "outputs": [
        {
          "internalType": "uint256",
          "name": "id",
          "type": "uint256"
        },
        {
          "internalType": "string",
          "name": "name",
          "type": "string"
        },
        {
          "internalType": "uint256",
          "name": "voteCount",
          "type": "uint256"
        }
      ],
      "payable": false,
      "stateMutability": "view",
      "type": "function"
    },
    {
      "constant": true,
      "inputs": [],
      "name": "candidatesCount",
      "outputs": [
        {
          "internalType": "uint256",
          "name": "",
          "type": "uint256"
        }
      ],
      "payable": false,
      "stateMutability": "view",
      "type": "function"
    },
    {
      "constant": true,
      "inputs": [],
      "name": "description",
      "outputs": [
        {
          "internalType": "string",
          "name": "",
          "type": "string"
        }
      ],
      "payable": false,
      "stateMutability": "view",
      "type": "function"
    },
    {
      "constant": true,
      "inputs": [],
      "name": "edate",
      "outputs": [
        {
          "internalType": "uint256",
          "name": "",
          "type": "uint256"
        }
      ],
      "payable": false,
      "stateMutability": "view",
      "type": "function"
    },
    {
      "constant": true,
      "inputs": [],
      "name": "name",
      "outputs": [
        {
          "internalType": "string",
          "name": "",
          "type": "string"
        }
      ],
      "payable": false,
      "stateMutability": "view",
      "type": "function"
    },
    {
      "constant": true,
      "inputs": [],
      "name": "sdate",
      "outputs": [
        {
          "internalType": "uint256",
          "name": "",
          "type": "uint256"
        }
      ],
      "payable": false,
      "stateMutability": "view",
      "type": "function"
    },
    {
      "constant": true,
      "inputs": [],
      "name": "status",
      "outputs": [
        {
          "internalType": "enum Election.Status",
          "name": "",
          "type": "uint8"
        }
      ],
      "payable": false,
      "stateMutability": "view",
      "type": "function"
    },
    {
      "constant": true,
      "inputs": [
        {
          "internalType": "address",
          "name": "",
          "type": "address"
        }
      ],
      "name": "voters",
      "outputs": [
        {
          "internalType": "bool",
          "name": "",
          "type": "bool"
        }
      ],
      "payable": false,
      "stateMutability": "view",
      "type": "function"
    },
    {
      "constant": false,
      "inputs": [
        {
          "internalType": "uint256",
          "name": "_candidate",
          "type": "uint256"
        }
      ],
      "name": "vote",
      "outputs": [],
      "payable": false,
      "stateMutability": "nonpayable",
      "type": "function"
    }
  ],
  "bytecode": "0x60806040523480156200001157600080fd5b5060405162001070380380620010708339818101604052620000379190810190620004e6565b826000815181106200004557fe5b6020026020010151600090805190602001906200006492919062000233565b50826001815181106200007357fe5b6020026020010151600190805190602001906200009292919062000233565b5082600281518110620000a157fe5b602002602001015160029080519060200190620000c092919062000233565b5081600081518110620000cf57fe5b602002602001015160038190555081600181518110620000eb57fe5b6020026020010151600481905550816000815181106200010757fe5b602002602001015142101562000142576001600560006101000a81548160ff021916908360028111156200013757fe5b021790555062000168565b6000600560006101000a81548160ff021916908360028111156200016257fe5b02179055505b60008090505b8151811015620001ab576200019d8282815181106200018957fe5b6020026020010151620001b560201b60201c565b80806001019150506200016e565b505050506200068e565b60086000815480929190600101919050555060405180606001604052806008548152602001828152602001600081525060066000600854815260200190815260200160002060008201518160000155602082015181600101908051906020019062000222929190620002ba565b506040820151816002015590505050565b828054600181600116156101000203166002900490600052602060002090601f016020900481019282601f106200027657805160ff1916838001178555620002a7565b82800160010185558215620002a7579182015b82811115620002a657825182559160200191906001019062000289565b5b509050620002b6919062000341565b5090565b828054600181600116156101000203166002900490600052602060002090601f016020900481019282601f10620002fd57805160ff19168380011785556200032e565b828001600101855582156200032e579182015b828111156200032d57825182559160200191906001019062000310565b5b5090506200033d919062000341565b5090565b6200036691905b808211156200036257600081600090555060010162000348565b5090565b90565b600082601f8301126200037b57600080fd5b8151620003926200038c82620005b5565b62000587565b9150818183526020840193506020810190508360005b83811015620003dc5781518601620003c1888262000473565b845260208401935060208301925050600181019050620003a8565b5050505092915050565b600082601f830112620003f857600080fd5b81516200040f6200040982620005de565b62000587565b915081818352602084019350602081019050838560208402820111156200043557600080fd5b60005b838110156200046957816200044e8882620004cf565b84526020840193506020830192505060018101905062000438565b5050505092915050565b600082601f8301126200048557600080fd5b81516200049c620004968262000607565b62000587565b91508082526020830160208301858383011115620004b957600080fd5b620004c68382846200063e565b50505092915050565b600081519050620004e08162000674565b92915050565b600080600060608486031215620004fc57600080fd5b600084015167ffffffffffffffff8111156200051757600080fd5b620005258682870162000369565b935050602084015167ffffffffffffffff8111156200054357600080fd5b6200055186828701620003e6565b925050604084015167ffffffffffffffff8111156200056f57600080fd5b6200057d8682870162000369565b9150509250925092565b6000604051905081810181811067ffffffffffffffff82111715620005ab57600080fd5b8060405250919050565b600067ffffffffffffffff821115620005cd57600080fd5b602082029050602081019050919050565b600067ffffffffffffffff821115620005f657600080fd5b602082029050602081019050919050565b600067ffffffffffffffff8211156200061f57600080fd5b601f19601f8301169050602081019050919050565b6000819050919050565b60005b838110156200065e57808201518184015260208101905062000641565b838111156200066e576000848401525b50505050565b6200067f8162000634565b81146200068b57600080fd5b50565b6109d2806200069e6000396000f3fe608060405234801561001057600080fd5b506004361061009e5760003560e01c80633477ee2e116100665780633477ee2e146101375780637284e41614610169578063a3ec138d14610187578063ed73690f146101b7578063f748ca0d146101d55761009e565b80630121b93f146100a357806306fdde03146100bf578063200d2ed2146100dd5780632d35a8a2146100fb5780632e58ca4614610119575b600080fd5b6100bd60048036036100b89190810190610687565b6101f3565b005b6100c7610353565b6040516100d491906107cc565b60405180910390f35b6100e56103f1565b6040516100f291906107b1565b60405180910390f35b610103610404565b604051610110919061082e565b60405180910390f35b61012161040a565b60405161012e91906107cc565b60405180910390f35b610151600480360361014c9190810190610687565b6104a8565b60405161016093929190610849565b60405180910390f35b61017161056a565b60405161017e91906107cc565b60405180910390f35b6101a1600480360361019c919081019061065e565b610608565b6040516101ae9190610796565b60405180910390f35b6101bf610628565b6040516101cc919061082e565b60405180910390f35b6101dd61062e565b6040516101ea919061082e565b60405180910390f35b600760003373ffffffffffffffffffffffffffffffffffffffff1673ffffffffffffffffffffffffffffffffffffffff16815260200190815260200160002060009054906101000a900460ff1615610280576040517f08c379a00000000000000000000000000000000000000000000000000000000081526004016102779061080e565b60405180910390fd5b6008548111158015610293575060018110155b6102d2576040517f08c379a00000000000000000000000000000000000000000000000000000000081526004016102c9906107ee565b60405180910390fd5b6001600760003373ffffffffffffffffffffffffffffffffffffffff1673ffffffffffffffffffffffffffffffffffffffff16815260200190815260200160002060006101000a81548160ff021916908315150217905550600660008281526020019081526020016000206002016000815480929190600101919050555050565b60008054600181600116156101000203166002900480601f0160208091040260200160405190810160405280929190818152602001828054600181600116156101000203166002900480156103e95780601f106103be576101008083540402835291602001916103e9565b820191906000526020600020905b8154815290600101906020018083116103cc57829003601f168201915b505050505081565b600560009054906101000a900460ff1681565b60085481565b60028054600181600116156101000203166002900480601f0160208091040260200160405190810160405280929190818152602001828054600181600116156101000203166002900480156104a05780601f10610475576101008083540402835291602001916104a0565b820191906000526020600020905b81548152906001019060200180831161048357829003601f168201915b505050505081565b6006602052806000526040600020600091509050806000015490806001018054600181600116156101000203166002900480601f01602080910402602001604051908101604052809291908181526020018280546001816001161561010002031660029004801561055a5780601f1061052f5761010080835404028352916020019161055a565b820191906000526020600020905b81548152906001019060200180831161053d57829003601f168201915b5050505050908060020154905083565b60018054600181600116156101000203166002900480601f0160208091040260200160405190810160405280929190818152602001828054600181600116156101000203166002900480156106005780601f106105d557610100808354040283529160200191610600565b820191906000526020600020905b8154815290600101906020018083116105e357829003601f168201915b505050505081565b60076020528060005260406000206000915054906101000a900460ff1681565b60045481565b60035481565b60008135905061064381610961565b92915050565b60008135905061065881610978565b92915050565b60006020828403121561067057600080fd5b600061067e84828501610634565b91505092915050565b60006020828403121561069957600080fd5b60006106a784828501610649565b91505092915050565b6106b9816108b5565b82525050565b6106c8816108fe565b82525050565b60006106d982610887565b6106e38185610892565b93506106f3818560208601610910565b6106fc81610943565b840191505092915050565b6000610714601a83610892565b91507f496e76616c69642063616e64696461746520746f20566f7465210000000000006000830152602082019050919050565b6000610754601883610892565b91507f566f7465722068617320616c726561647920566f7465642100000000000000006000830152602082019050919050565b610790816108f4565b82525050565b60006020820190506107ab60008301846106b0565b92915050565b60006020820190506107c660008301846106bf565b92915050565b600060208201905081810360008301526107e681846106ce565b905092915050565b6000602082019050818103600083015261080781610707565b9050919050565b6000602082019050818103600083015261082781610747565b9050919050565b60006020820190506108436000830184610787565b92915050565b600060608201905061085e6000830186610787565b818103602083015261087081856106ce565b905061087f6040830184610787565b949350505050565b600081519050919050565b600082825260208201905092915050565b60006108ae826108d4565b9050919050565b60008115159050919050565b60008190506108cf82610954565b919050565b600073ffffffffffffffffffffffffffffffffffffffff82169050919050565b6000819050919050565b6000610909826108c1565b9050919050565b60005b8381101561092e578082015181840152602081019050610913565b8381111561093d576000848401525b50505050565b6000601f19601f8301169050919050565b6003811061095e57fe5b50565b61096a816108a3565b811461097557600080fd5b50565b610981816108f4565b811461098c57600080fd5b5056fea365627a7a723158201f22f3786841a11bb0006db1119b6436fc38ece4d9ce86fa17c274186089d8296c6578706572696d656e74616cf564736f6c63430005100040",
  "source": "pragma solidity >=0.4.21 <0.6.0;\npragma experimental ABIEncoderV2;\n\ncontract Election {\n\n    string public name;\n    string public description;\n    string public algorithm;\n    uint public sdate;\n    uint public edate;\n\n    enum Status {active, pending, finished}\n    Status public status;\n\n    struct Candidate {\n        uint id;\n        string name;\n        uint voteCount;\n    }\n\n    mapping(uint => Candidate) public candidates;\n    mapping(address => bool) public voters;\n\n    uint public candidatesCount;\n\n    constructor (string[] memory _nda, uint[] memory _se, string[] memory _candidates) public {\n        name = _nda[0];\n        description = _nda[1];\n        algorithm = _nda[2];\n        sdate = _se[0];\n        edate = _se[1];\n        if(now < _se[0]) {\n            status = Status.pending;\n        } else {\n            status = Status.active;\n        }\n        for(uint i = 0; i < _candidates.length; i++) {\n            addCandidate(_candidates[i]);\n        }\n    }\n\n    function addCandidate (string memory _name) private {\n        candidatesCount ++;\n        candidates[candidatesCount] = Candidate(candidatesCount, _name, 0);\n    }\n\n    function vote (uint _candidate) public {\n        require(!voters[msg.sender], \"Voter has already Voted!\");\n        require(_candidate <= candidatesCount && _candidate >= 1, \"Invalid candidate to Vote!\");\n        voters[msg.sender] = true;\n        candidates[_candidate].voteCount++;\n    }\n\n}\n",
  "sourcePath": "/home/cipher/Desktop/agora_blockchain/contracts/Election.sol",
  "compiler": {
    "name": "solc",
    "version": "0.5.16+commit.9c3226ce.Emscripten.clang"
  },
  "schemaVersion": "3.0.23",
  "updatedAt": "2021-05-29T23:37:41.474Z",
  "devdoc": {
    "methods": {}
  },
  "userdoc": {
    "methods": {}
  }
}