{
  "contractName": "MainContract",
  "abi": [
    {
      "constant": true,
      "inputs": [
        {
          "internalType": "uint256",
          "name": "",
          "type": "uint256"
        }
      ],
      "name": "Users",
      "outputs": [
        {
          "internalType": "address",
          "name": "",
          "type": "address"
        }
      ],
      "payable": false,
      "stateMutability": "view",
      "type": "function"
    },
    {
      "constant": true,
      "inputs": [],
      "name": "userId",
      "outputs": [
        {
          "internalType": "uint256",
          "name": "",
          "type": "uint256"
        }
      ],
      "payable": false,
      "stateMutability": "view",
      "type": "function"
    },
    {
      "constant": false,
      "inputs": [],
      "name": "createUser",
      "outputs": [
        {
          "internalType": "address",
          "name": "",
          "type": "address"
        }
      ],
      "payable": false,
      "stateMutability": "nonpayable",
      "type": "function"
    }
  ],
  "bytecode": "0x60806040526000805534801561001457600080fd5b50611ef5806100246000396000f3fe608060405234801561001057600080fd5b50600436106100415760003560e01c80631e98fd1c1461004657806325ad91ce146100765780635897591914610094575b600080fd5b610060600480360361005b91908101906101e5565b6100b2565b60405161006d919061023b565b60405180910390f35b61007e6100e5565b60405161008b919061023b565b60405180910390f35b61009c6101bd565b6040516100a99190610271565b60405180910390f35b60016020528060005260406000206000915054906101000a900473ffffffffffffffffffffffffffffffffffffffff1681565b600080336040516100f5906101c3565b6100ff9190610256565b604051809103906000f08015801561011b573d6000803e3d6000fd5b509050600080815480929190600101919050555080600160008054815260200190815260200160002060006101000a81548173ffffffffffffffffffffffffffffffffffffffff021916908373ffffffffffffffffffffffffffffffffffffffff160217905550600160008054815260200190815260200160002060009054906101000a900473ffffffffffffffffffffffffffffffffffffffff1691505090565b60005481565b611b9d8061031683390190565b6000813590506101df816102fe565b92915050565b6000602082840312156101f757600080fd5b6000610205848285016101d0565b91505092915050565b610217816102c8565b82525050565b6102268161028c565b82525050565b610235816102be565b82525050565b6000602082019050610250600083018461021d565b92915050565b600060208201905061026b600083018461020e565b92915050565b6000602082019050610286600083018461022c565b92915050565b60006102978261029e565b9050919050565b600073ffffffffffffffffffffffffffffffffffffffff82169050919050565b6000819050919050565b60006102d3826102da565b9050919050565b60006102e5826102ec565b9050919050565b60006102f78261029e565b9050919050565b610307816102be565b811461031257600080fd5b5056fe6080604052600060015534801561001557600080fd5b50604051611b9d380380611b9d83398181016040526100379190810190610092565b806000806101000a81548173ffffffffffffffffffffffffffffffffffffffff021916908373ffffffffffffffffffffffffffffffffffffffff16021790555050610104565b60008151905061008c816100ed565b92915050565b6000602082840312156100a457600080fd5b60006100b28482850161007d565b91505092915050565b60006100c6826100cd565b9050919050565b600073ffffffffffffffffffffffffffffffffffffffff82169050919050565b6100f6816100bb565b811461010157600080fd5b50565b611a8a806101136000396000f3fe60806040523480156200001157600080fd5b5060043610620000525760003560e01c8063051364d414620000575780631e9598e214620000795780633478506614620000af578063a1768d2414620000d1575b600080fd5b6200006162000107565b604051620000709190620007c0565b60405180910390f35b6200009760048036036200009191908101906200050c565b6200010d565b604051620000a691906200072f565b60405180910390f35b620000b962000140565b604051620000c891906200072f565b60405180910390f35b620000ef6004803603620000e991908101906200046b565b62000165565b604051620000fe91906200072f565b60405180910390f35b60015481565b60026020528060005260406000206000915054906101000a900473ffffffffffffffffffffffffffffffffffffffff1681565b6000809054906101000a900473ffffffffffffffffffffffffffffffffffffffff1681565b60008060009054906101000a900473ffffffffffffffffffffffffffffffffffffffff1673ffffffffffffffffffffffffffffffffffffffff163373ffffffffffffffffffffffffffffffffffffffff1614620001f9576040517f08c379a0000000000000000000000000000000000000000000000000000000008152600401620001f0906200079e565b60405180910390fd5b60008484846040516200020c90620002e0565b6200021a939291906200074c565b604051809103906000f08015801562000237573d6000803e3d6000fd5b5090506001600081548092919060010191905055508060026000600154815260200190815260200160002060006101000a81548173ffffffffffffffffffffffffffffffffffffffff021916908373ffffffffffffffffffffffffffffffffffffffff16021790555060026000600154815260200190815260200160002060009054906101000a900473ffffffffffffffffffffffffffffffffffffffff169150509392505050565b61107080620009d883390190565b600082601f8301126200030057600080fd5b81356200031762000311826200080b565b620007dd565b9150818183526020840193506020810190508360005b83811015620003615781358601620003468882620003f8565b8452602084019350602083019250506001810190506200032d565b5050505092915050565b600082601f8301126200037d57600080fd5b8135620003946200038e8262000834565b620007dd565b91508181835260208401935060208101905083856020840282011115620003ba57600080fd5b60005b83811015620003ee5781620003d3888262000454565b845260208401935060208301925050600181019050620003bd565b5050505092915050565b600082601f8301126200040a57600080fd5b8135620004216200041b826200085d565b620007dd565b915080825260208301602083018583830111156200043e57600080fd5b6200044b83828462000967565b50505092915050565b6000813590506200046581620009bd565b92915050565b6000806000606084860312156200048157600080fd5b600084013567ffffffffffffffff8111156200049c57600080fd5b620004aa86828701620002ee565b935050602084013567ffffffffffffffff811115620004c857600080fd5b620004d6868287016200036b565b925050604084013567ffffffffffffffff811115620004f457600080fd5b6200050286828701620002ee565b9150509250925092565b6000602082840312156200051f57600080fd5b60006200052f8482850162000454565b91505092915050565b600062000546838362000664565b905092915050565b60006200055c83836200070d565b60208301905092915050565b620005738162000929565b82525050565b60006200058682620008aa565b620005928185620008e5565b935083602082028501620005a6856200088a565b8060005b85811015620005e85784840389528151620005c6858262000538565b9450620005d383620008cb565b925060208a01995050600181019050620005aa565b50829750879550505050505092915050565b60006200060782620008b5565b620006138185620008f6565b935062000620836200089a565b8060005b83811015620006575781516200063b88826200054e565b97506200064883620008d8565b92505060018101905062000624565b5085935050505092915050565b60006200067182620008c0565b6200067d818562000907565b93506200068f81856020860162000976565b6200069a81620009ac565b840191505092915050565b6000620006b4602c8362000918565b91507f43616e27742063726561746520656c656374696f6e207573696e67206f74686560008301527f72277320636f6e747261637400000000000000000000000000000000000000006020830152604082019050919050565b62000718816200095d565b82525050565b62000729816200095d565b82525050565b600060208201905062000746600083018462000568565b92915050565b6000606082019050818103600083015262000768818662000579565b905081810360208301526200077e8185620005fa565b9050818103604083015262000794818462000579565b9050949350505050565b60006020820190508181036000830152620007b981620006a5565b9050919050565b6000602082019050620007d760008301846200071e565b92915050565b6000604051905081810181811067ffffffffffffffff821117156200080157600080fd5b8060405250919050565b600067ffffffffffffffff8211156200082357600080fd5b602082029050602081019050919050565b600067ffffffffffffffff8211156200084c57600080fd5b602082029050602081019050919050565b600067ffffffffffffffff8211156200087557600080fd5b601f19601f8301169050602081019050919050565b6000819050602082019050919050565b6000819050602082019050919050565b600081519050919050565b600081519050919050565b600081519050919050565b6000602082019050919050565b6000602082019050919050565b600082825260208201905092915050565b600082825260208201905092915050565b600082825260208201905092915050565b600082825260208201905092915050565b600062000936826200093d565b9050919050565b600073ffffffffffffffffffffffffffffffffffffffff82169050919050565b6000819050919050565b82818337600083830152505050565b60005b838110156200099657808201518184015260208101905062000979565b83811115620009a6576000848401525b50505050565b6000601f19601f8301169050919050565b620009c8816200095d565b8114620009d457600080fd5b5056fe60806040523480156200001157600080fd5b5060405162001070380380620010708339818101604052620000379190810190620004e6565b826000815181106200004557fe5b6020026020010151600090805190602001906200006492919062000233565b50826001815181106200007357fe5b6020026020010151600190805190602001906200009292919062000233565b5082600281518110620000a157fe5b602002602001015160029080519060200190620000c092919062000233565b5081600081518110620000cf57fe5b602002602001015160038190555081600181518110620000eb57fe5b6020026020010151600481905550816000815181106200010757fe5b602002602001015142101562000142576001600560006101000a81548160ff021916908360028111156200013757fe5b021790555062000168565b6000600560006101000a81548160ff021916908360028111156200016257fe5b02179055505b60008090505b8151811015620001ab576200019d8282815181106200018957fe5b6020026020010151620001b560201b60201c565b80806001019150506200016e565b505050506200068e565b60086000815480929190600101919050555060405180606001604052806008548152602001828152602001600081525060066000600854815260200190815260200160002060008201518160000155602082015181600101908051906020019062000222929190620002ba565b506040820151816002015590505050565b828054600181600116156101000203166002900490600052602060002090601f016020900481019282601f106200027657805160ff1916838001178555620002a7565b82800160010185558215620002a7579182015b82811115620002a657825182559160200191906001019062000289565b5b509050620002b6919062000341565b5090565b828054600181600116156101000203166002900490600052602060002090601f016020900481019282601f10620002fd57805160ff19168380011785556200032e565b828001600101855582156200032e579182015b828111156200032d57825182559160200191906001019062000310565b5b5090506200033d919062000341565b5090565b6200036691905b808211156200036257600081600090555060010162000348565b5090565b90565b600082601f8301126200037b57600080fd5b8151620003926200038c82620005b5565b62000587565b9150818183526020840193506020810190508360005b83811015620003dc5781518601620003c1888262000473565b845260208401935060208301925050600181019050620003a8565b5050505092915050565b600082601f830112620003f857600080fd5b81516200040f6200040982620005de565b62000587565b915081818352602084019350602081019050838560208402820111156200043557600080fd5b60005b838110156200046957816200044e8882620004cf565b84526020840193506020830192505060018101905062000438565b5050505092915050565b600082601f8301126200048557600080fd5b81516200049c620004968262000607565b62000587565b91508082526020830160208301858383011115620004b957600080fd5b620004c68382846200063e565b50505092915050565b600081519050620004e08162000674565b92915050565b600080600060608486031215620004fc57600080fd5b600084015167ffffffffffffffff8111156200051757600080fd5b620005258682870162000369565b935050602084015167ffffffffffffffff8111156200054357600080fd5b6200055186828701620003e6565b925050604084015167ffffffffffffffff8111156200056f57600080fd5b6200057d8682870162000369565b9150509250925092565b6000604051905081810181811067ffffffffffffffff82111715620005ab57600080fd5b8060405250919050565b600067ffffffffffffffff821115620005cd57600080fd5b602082029050602081019050919050565b600067ffffffffffffffff821115620005f657600080fd5b602082029050602081019050919050565b600067ffffffffffffffff8211156200061f57600080fd5b601f19601f8301169050602081019050919050565b6000819050919050565b60005b838110156200065e57808201518184015260208101905062000641565b838111156200066e576000848401525b50505050565b6200067f8162000634565b81146200068b57600080fd5b50565b6109d2806200069e6000396000f3fe608060405234801561001057600080fd5b506004361061009e5760003560e01c80633477ee2e116100665780633477ee2e146101375780637284e41614610169578063a3ec138d14610187578063ed73690f146101b7578063f748ca0d146101d55761009e565b80630121b93f146100a357806306fdde03146100bf578063200d2ed2146100dd5780632d35a8a2146100fb5780632e58ca4614610119575b600080fd5b6100bd60048036036100b89190810190610687565b6101f3565b005b6100c7610353565b6040516100d491906107cc565b60405180910390f35b6100e56103f1565b6040516100f291906107b1565b60405180910390f35b610103610404565b604051610110919061082e565b60405180910390f35b61012161040a565b60405161012e91906107cc565b60405180910390f35b610151600480360361014c9190810190610687565b6104a8565b60405161016093929190610849565b60405180910390f35b61017161056a565b60405161017e91906107cc565b60405180910390f35b6101a1600480360361019c919081019061065e565b610608565b6040516101ae9190610796565b60405180910390f35b6101bf610628565b6040516101cc919061082e565b60405180910390f35b6101dd61062e565b6040516101ea919061082e565b60405180910390f35b600760003373ffffffffffffffffffffffffffffffffffffffff1673ffffffffffffffffffffffffffffffffffffffff16815260200190815260200160002060009054906101000a900460ff1615610280576040517f08c379a00000000000000000000000000000000000000000000000000000000081526004016102779061080e565b60405180910390fd5b6008548111158015610293575060018110155b6102d2576040517f08c379a00000000000000000000000000000000000000000000000000000000081526004016102c9906107ee565b60405180910390fd5b6001600760003373ffffffffffffffffffffffffffffffffffffffff1673ffffffffffffffffffffffffffffffffffffffff16815260200190815260200160002060006101000a81548160ff021916908315150217905550600660008281526020019081526020016000206002016000815480929190600101919050555050565b60008054600181600116156101000203166002900480601f0160208091040260200160405190810160405280929190818152602001828054600181600116156101000203166002900480156103e95780601f106103be576101008083540402835291602001916103e9565b820191906000526020600020905b8154815290600101906020018083116103cc57829003601f168201915b505050505081565b600560009054906101000a900460ff1681565b60085481565b60028054600181600116156101000203166002900480601f0160208091040260200160405190810160405280929190818152602001828054600181600116156101000203166002900480156104a05780601f10610475576101008083540402835291602001916104a0565b820191906000526020600020905b81548152906001019060200180831161048357829003601f168201915b505050505081565b6006602052806000526040600020600091509050806000015490806001018054600181600116156101000203166002900480601f01602080910402602001604051908101604052809291908181526020018280546001816001161561010002031660029004801561055a5780601f1061052f5761010080835404028352916020019161055a565b820191906000526020600020905b81548152906001019060200180831161053d57829003601f168201915b5050505050908060020154905083565b60018054600181600116156101000203166002900480601f0160208091040260200160405190810160405280929190818152602001828054600181600116156101000203166002900480156106005780601f106105d557610100808354040283529160200191610600565b820191906000526020600020905b8154815290600101906020018083116105e357829003601f168201915b505050505081565b60076020528060005260406000206000915054906101000a900460ff1681565b60045481565b60035481565b60008135905061064381610961565b92915050565b60008135905061065881610978565b92915050565b60006020828403121561067057600080fd5b600061067e84828501610634565b91505092915050565b60006020828403121561069957600080fd5b60006106a784828501610649565b91505092915050565b6106b9816108b5565b82525050565b6106c8816108fe565b82525050565b60006106d982610887565b6106e38185610892565b93506106f3818560208601610910565b6106fc81610943565b840191505092915050565b6000610714601a83610892565b91507f496e76616c69642063616e64696461746520746f20566f7465210000000000006000830152602082019050919050565b6000610754601883610892565b91507f566f7465722068617320616c726561647920566f7465642100000000000000006000830152602082019050919050565b610790816108f4565b82525050565b60006020820190506107ab60008301846106b0565b92915050565b60006020820190506107c660008301846106bf565b92915050565b600060208201905081810360008301526107e681846106ce565b905092915050565b6000602082019050818103600083015261080781610707565b9050919050565b6000602082019050818103600083015261082781610747565b9050919050565b60006020820190506108436000830184610787565b92915050565b600060608201905061085e6000830186610787565b818103602083015261087081856106ce565b905061087f6040830184610787565b949350505050565b600081519050919050565b600082825260208201905092915050565b60006108ae826108d4565b9050919050565b60008115159050919050565b60008190506108cf82610954565b919050565b600073ffffffffffffffffffffffffffffffffffffffff82169050919050565b6000819050919050565b6000610909826108c1565b9050919050565b60005b8381101561092e578082015181840152602081019050610913565b8381111561093d576000848401525b50505050565b6000601f19601f8301169050919050565b6003811061095e57fe5b50565b61096a816108a3565b811461097557600080fd5b50565b610981816108f4565b811461098c57600080fd5b5056fea365627a7a72315820b332f9c0f1752f25f7e1e2f8ae73a3184fde2f6e2ff85649b517557dde03342e6c6578706572696d656e74616cf564736f6c63430005100040a365627a7a723158209a0c16f009969eb05c1e2bc468cacc6340341f4b8171a1301bfae25048fb44b06c6578706572696d656e74616cf564736f6c63430005100040a365627a7a72315820fac5b4dfa7b5c932fa199091368b0ba2ea431fd8ee9a6b6a0adfb2215b81269d6c6578706572696d656e74616cf564736f6c63430005100040",
  "source": "pragma solidity >=0.4.21 <0.6.0;\npragma experimental ABIEncoderV2;\n\nimport './User.sol';\n\ncontract MainContract {\n    uint public userId = 0;\n    mapping (uint => address) public Users;\n\n    function createUser () public returns(address) {\n        User user = new User(msg.sender);\n        userId++;\n        Users[userId] = address(user);\n        return Users[userId];\n    }\n\n}\n",
  "sourcePath": "/home/guest/blockchain/agora_blockchain/contracts/MainContract.sol",
  "compiler": {
    "name": "solc",
    "version": "0.5.16+commit.9c3226ce.Emscripten.clang"
  },
  "schemaVersion": "3.4.1",
  "updatedAt": "2021-05-29T06:15:20.780Z",
  "networkType": "ethereum",
  "devdoc": {
    "methods": {}
  },
  "userdoc": {
    "methods": {}
  }
}