{
  "contractName": "User",
  "abi": [
    {
      "inputs": [
        {
          "internalType": "address",
          "name": "_userPublicAddress",
          "type": "address"
        }
      ],
      "payable": false,
      "stateMutability": "nonpayable",
      "type": "constructor"
    },
    {
      "anonymous": false,
      "inputs": [
        {
          "indexed": false,
          "internalType": "address",
          "name": "election",
          "type": "address"
        }
      ],
      "name": "electionCreated",
      "type": "event"
    },
    {
      "constant": true,
      "inputs": [
        {
          "internalType": "uint256",
          "name": "",
          "type": "uint256"
        }
      ],
      "name": "Elections",
      "outputs": [
        {
          "internalType": "address",
          "name": "",
          "type": "address"
        }
      ],
      "payable": false,
      "stateMutability": "view",
      "type": "function"
    },
    {
      "constant": true,
      "inputs": [],
      "name": "electionCount",
      "outputs": [
        {
          "internalType": "uint256",
          "name": "",
          "type": "uint256"
        }
      ],
      "payable": false,
      "stateMutability": "view",
      "type": "function"
    },
    {
      "constant": true,
      "inputs": [],
      "name": "electionId",
      "outputs": [
        {
          "internalType": "uint256",
          "name": "",
          "type": "uint256"
        }
      ],
      "payable": false,
      "stateMutability": "view",
      "type": "function"
    },
    {
      "constant": true,
      "inputs": [],
      "name": "userPublicAddress",
      "outputs": [
        {
          "internalType": "address",
          "name": "",
          "type": "address"
        }
      ],
      "payable": false,
      "stateMutability": "view",
      "type": "function"
    },
    {
      "constant": false,
      "inputs": [
        {
          "internalType": "string[]",
          "name": "_nda",
          "type": "string[]"
        },
        {
          "internalType": "uint256[]",
          "name": "_se",
          "type": "uint256[]"
        },
        {
          "internalType": "string[]",
          "name": "_candidates",
          "type": "string[]"
        }
      ],
      "name": "createElection",
      "outputs": [],
      "payable": false,
      "stateMutability": "nonpayable",
      "type": "function"
    }
  ],
  "bytecode": "0x60806040526000600155600060025534801561001a57600080fd5b50604051611c04380380611c04833981810160405261003c9190810190610097565b806000806101000a81548173ffffffffffffffffffffffffffffffffffffffff021916908373ffffffffffffffffffffffffffffffffffffffff16021790555050610109565b600081519050610091816100f2565b92915050565b6000602082840312156100a957600080fd5b60006100b784828501610082565b91505092915050565b60006100cb826100d2565b9050919050565b600073ffffffffffffffffffffffffffffffffffffffff82169050919050565b6100fb816100c0565b811461010657600080fd5b50565b611aec806101186000396000f3fe60806040523480156200001157600080fd5b50600436106200005e5760003560e01c8063051364d414620000635780631e9598e214620000855780633478506614620000bb578063997d283014620000dd578063a1768d2414620000ff575b600080fd5b6200006d6200011f565b6040516200007c919062000822565b60405180910390f35b620000a360048036036200009d91908101906200056e565b62000125565b604051620000b2919062000791565b60405180910390f35b620000c562000158565b604051620000d4919062000791565b60405180910390f35b620000e76200017d565b604051620000f6919062000822565b60405180910390f35b6200011d6004803603620001179190810190620004cd565b62000183565b005b60015481565b60036020528060005260406000206000915054906101000a900473ffffffffffffffffffffffffffffffffffffffff1681565b6000809054906101000a900473ffffffffffffffffffffffffffffffffffffffff1681565b60025481565b6000809054906101000a900473ffffffffffffffffffffffffffffffffffffffff1673ffffffffffffffffffffffffffffffffffffffff163373ffffffffffffffffffffffffffffffffffffffff161462000215576040517f08c379a00000000000000000000000000000000000000000000000000000000081526004016200020c9062000800565b60405180910390fd5b6000838383604051620002289062000342565b6200023693929190620007ae565b604051809103906000f08015801562000253573d6000803e3d6000fd5b5090506001600081548092919060010191905055506002600081548092919060010191905055508060036000600154815260200190815260200160002060006101000a81548173ffffffffffffffffffffffffffffffffffffffff021916908373ffffffffffffffffffffffffffffffffffffffff1602179055507fe9b71bf7b5d1081a430668b09908d2cf4ff6a2abec613a9d70d9829bcf40ccfc60036000600154815260200190815260200160002060009054906101000a900473ffffffffffffffffffffffffffffffffffffffff1660405162000334919062000791565b60405180910390a150505050565b6110708062000a3a83390190565b600082601f8301126200036257600080fd5b81356200037962000373826200086d565b6200083f565b9150818183526020840193506020810190508360005b83811015620003c35781358601620003a888826200045a565b8452602084019350602083019250506001810190506200038f565b5050505092915050565b600082601f830112620003df57600080fd5b8135620003f6620003f08262000896565b6200083f565b915081818352602084019350602081019050838560208402820111156200041c57600080fd5b60005b83811015620004505781620004358882620004b6565b8452602084019350602083019250506001810190506200041f565b5050505092915050565b600082601f8301126200046c57600080fd5b8135620004836200047d82620008bf565b6200083f565b91508082526020830160208301858383011115620004a057600080fd5b620004ad838284620009c9565b50505092915050565b600081359050620004c78162000a1f565b92915050565b600080600060608486031215620004e357600080fd5b600084013567ffffffffffffffff811115620004fe57600080fd5b6200050c8682870162000350565b935050602084013567ffffffffffffffff8111156200052a57600080fd5b6200053886828701620003cd565b925050604084013567ffffffffffffffff8111156200055657600080fd5b620005648682870162000350565b9150509250925092565b6000602082840312156200058157600080fd5b60006200059184828501620004b6565b91505092915050565b6000620005a88383620006c6565b905092915050565b6000620005be83836200076f565b60208301905092915050565b620005d5816200098b565b82525050565b6000620005e8826200090c565b620005f4818562000947565b9350836020820285016200060885620008ec565b8060005b858110156200064a57848403895281516200062885826200059a565b945062000635836200092d565b925060208a019950506001810190506200060c565b50829750879550505050505092915050565b6000620006698262000917565b62000675818562000958565b93506200068283620008fc565b8060005b83811015620006b95781516200069d8882620005b0565b9750620006aa836200093a565b92505060018101905062000686565b5085935050505092915050565b6000620006d38262000922565b620006df818562000969565b9350620006f1818560208601620009d8565b620006fc8162000a0e565b840191505092915050565b600062000716602c836200097a565b91507f43616e27742063726561746520656c656374696f6e207573696e67206f74686560008301527f72277320636f6e747261637400000000000000000000000000000000000000006020830152604082019050919050565b6200077a81620009bf565b82525050565b6200078b81620009bf565b82525050565b6000602082019050620007a86000830184620005ca565b92915050565b60006060820190508181036000830152620007ca8186620005db565b90508181036020830152620007e081856200065c565b90508181036040830152620007f68184620005db565b9050949350505050565b600060208201905081810360008301526200081b8162000707565b9050919050565b600060208201905062000839600083018462000780565b92915050565b6000604051905081810181811067ffffffffffffffff821117156200086357600080fd5b8060405250919050565b600067ffffffffffffffff8211156200088557600080fd5b602082029050602081019050919050565b600067ffffffffffffffff821115620008ae57600080fd5b602082029050602081019050919050565b600067ffffffffffffffff821115620008d757600080fd5b601f19601f8301169050602081019050919050565b6000819050602082019050919050565b6000819050602082019050919050565b600081519050919050565b600081519050919050565b600081519050919050565b6000602082019050919050565b6000602082019050919050565b600082825260208201905092915050565b600082825260208201905092915050565b600082825260208201905092915050565b600082825260208201905092915050565b600062000998826200099f565b9050919050565b600073ffffffffffffffffffffffffffffffffffffffff82169050919050565b6000819050919050565b82818337600083830152505050565b60005b83811015620009f8578082015181840152602081019050620009db565b8381111562000a08576000848401525b50505050565b6000601f19601f8301169050919050565b62000a2a81620009bf565b811462000a3657600080fd5b5056fe60806040523480156200001157600080fd5b5060405162001070380380620010708339818101604052620000379190810190620004e6565b826000815181106200004557fe5b6020026020010151600090805190602001906200006492919062000233565b50826001815181106200007357fe5b6020026020010151600190805190602001906200009292919062000233565b5082600281518110620000a157fe5b602002602001015160029080519060200190620000c092919062000233565b5081600081518110620000cf57fe5b602002602001015160038190555081600181518110620000eb57fe5b6020026020010151600481905550816000815181106200010757fe5b602002602001015142101562000142576001600560006101000a81548160ff021916908360028111156200013757fe5b021790555062000168565b6000600560006101000a81548160ff021916908360028111156200016257fe5b02179055505b60008090505b8151811015620001ab576200019d8282815181106200018957fe5b6020026020010151620001b560201b60201c565b80806001019150506200016e565b505050506200068e565b60086000815480929190600101919050555060405180606001604052806008548152602001828152602001600081525060066000600854815260200190815260200160002060008201518160000155602082015181600101908051906020019062000222929190620002ba565b506040820151816002015590505050565b828054600181600116156101000203166002900490600052602060002090601f016020900481019282601f106200027657805160ff1916838001178555620002a7565b82800160010185558215620002a7579182015b82811115620002a657825182559160200191906001019062000289565b5b509050620002b6919062000341565b5090565b828054600181600116156101000203166002900490600052602060002090601f016020900481019282601f10620002fd57805160ff19168380011785556200032e565b828001600101855582156200032e579182015b828111156200032d57825182559160200191906001019062000310565b5b5090506200033d919062000341565b5090565b6200036691905b808211156200036257600081600090555060010162000348565b5090565b90565b600082601f8301126200037b57600080fd5b8151620003926200038c82620005b5565b62000587565b9150818183526020840193506020810190508360005b83811015620003dc5781518601620003c1888262000473565b845260208401935060208301925050600181019050620003a8565b5050505092915050565b600082601f830112620003f857600080fd5b81516200040f6200040982620005de565b62000587565b915081818352602084019350602081019050838560208402820111156200043557600080fd5b60005b838110156200046957816200044e8882620004cf565b84526020840193506020830192505060018101905062000438565b5050505092915050565b600082601f8301126200048557600080fd5b81516200049c620004968262000607565b62000587565b91508082526020830160208301858383011115620004b957600080fd5b620004c68382846200063e565b50505092915050565b600081519050620004e08162000674565b92915050565b600080600060608486031215620004fc57600080fd5b600084015167ffffffffffffffff8111156200051757600080fd5b620005258682870162000369565b935050602084015167ffffffffffffffff8111156200054357600080fd5b6200055186828701620003e6565b925050604084015167ffffffffffffffff8111156200056f57600080fd5b6200057d8682870162000369565b9150509250925092565b6000604051905081810181811067ffffffffffffffff82111715620005ab57600080fd5b8060405250919050565b600067ffffffffffffffff821115620005cd57600080fd5b602082029050602081019050919050565b600067ffffffffffffffff821115620005f657600080fd5b602082029050602081019050919050565b600067ffffffffffffffff8211156200061f57600080fd5b601f19601f8301169050602081019050919050565b6000819050919050565b60005b838110156200065e57808201518184015260208101905062000641565b838111156200066e576000848401525b50505050565b6200067f8162000634565b81146200068b57600080fd5b50565b6109d2806200069e6000396000f3fe608060405234801561001057600080fd5b506004361061009e5760003560e01c80633477ee2e116100665780633477ee2e146101375780637284e41614610169578063a3ec138d14610187578063ed73690f146101b7578063f748ca0d146101d55761009e565b80630121b93f146100a357806306fdde03146100bf578063200d2ed2146100dd5780632d35a8a2146100fb5780632e58ca4614610119575b600080fd5b6100bd60048036036100b89190810190610687565b6101f3565b005b6100c7610353565b6040516100d491906107cc565b60405180910390f35b6100e56103f1565b6040516100f291906107b1565b60405180910390f35b610103610404565b604051610110919061082e565b60405180910390f35b61012161040a565b60405161012e91906107cc565b60405180910390f35b610151600480360361014c9190810190610687565b6104a8565b60405161016093929190610849565b60405180910390f35b61017161056a565b60405161017e91906107cc565b60405180910390f35b6101a1600480360361019c919081019061065e565b610608565b6040516101ae9190610796565b60405180910390f35b6101bf610628565b6040516101cc919061082e565b60405180910390f35b6101dd61062e565b6040516101ea919061082e565b60405180910390f35b600760003373ffffffffffffffffffffffffffffffffffffffff1673ffffffffffffffffffffffffffffffffffffffff16815260200190815260200160002060009054906101000a900460ff1615610280576040517f08c379a00000000000000000000000000000000000000000000000000000000081526004016102779061080e565b60405180910390fd5b6008548111158015610293575060018110155b6102d2576040517f08c379a00000000000000000000000000000000000000000000000000000000081526004016102c9906107ee565b60405180910390fd5b6001600760003373ffffffffffffffffffffffffffffffffffffffff1673ffffffffffffffffffffffffffffffffffffffff16815260200190815260200160002060006101000a81548160ff021916908315150217905550600660008281526020019081526020016000206002016000815480929190600101919050555050565b60008054600181600116156101000203166002900480601f0160208091040260200160405190810160405280929190818152602001828054600181600116156101000203166002900480156103e95780601f106103be576101008083540402835291602001916103e9565b820191906000526020600020905b8154815290600101906020018083116103cc57829003601f168201915b505050505081565b600560009054906101000a900460ff1681565b60085481565b60028054600181600116156101000203166002900480601f0160208091040260200160405190810160405280929190818152602001828054600181600116156101000203166002900480156104a05780601f10610475576101008083540402835291602001916104a0565b820191906000526020600020905b81548152906001019060200180831161048357829003601f168201915b505050505081565b6006602052806000526040600020600091509050806000015490806001018054600181600116156101000203166002900480601f01602080910402602001604051908101604052809291908181526020018280546001816001161561010002031660029004801561055a5780601f1061052f5761010080835404028352916020019161055a565b820191906000526020600020905b81548152906001019060200180831161053d57829003601f168201915b5050505050908060020154905083565b60018054600181600116156101000203166002900480601f0160208091040260200160405190810160405280929190818152602001828054600181600116156101000203166002900480156106005780601f106105d557610100808354040283529160200191610600565b820191906000526020600020905b8154815290600101906020018083116105e357829003601f168201915b505050505081565b60076020528060005260406000206000915054906101000a900460ff1681565b60045481565b60035481565b60008135905061064381610961565b92915050565b60008135905061065881610978565b92915050565b60006020828403121561067057600080fd5b600061067e84828501610634565b91505092915050565b60006020828403121561069957600080fd5b60006106a784828501610649565b91505092915050565b6106b9816108b5565b82525050565b6106c8816108fe565b82525050565b60006106d982610887565b6106e38185610892565b93506106f3818560208601610910565b6106fc81610943565b840191505092915050565b6000610714601a83610892565b91507f496e76616c69642063616e64696461746520746f20566f7465210000000000006000830152602082019050919050565b6000610754601883610892565b91507f566f7465722068617320616c726561647920566f7465642100000000000000006000830152602082019050919050565b610790816108f4565b82525050565b60006020820190506107ab60008301846106b0565b92915050565b60006020820190506107c660008301846106bf565b92915050565b600060208201905081810360008301526107e681846106ce565b905092915050565b6000602082019050818103600083015261080781610707565b9050919050565b6000602082019050818103600083015261082781610747565b9050919050565b60006020820190506108436000830184610787565b92915050565b600060608201905061085e6000830186610787565b818103602083015261087081856106ce565b905061087f6040830184610787565b949350505050565b600081519050919050565b600082825260208201905092915050565b60006108ae826108d4565b9050919050565b60008115159050919050565b60008190506108cf82610954565b919050565b600073ffffffffffffffffffffffffffffffffffffffff82169050919050565b6000819050919050565b6000610909826108c1565b9050919050565b60005b8381101561092e578082015181840152602081019050610913565b8381111561093d576000848401525b50505050565b6000601f19601f8301169050919050565b6003811061095e57fe5b50565b61096a816108a3565b811461097557600080fd5b50565b610981816108f4565b811461098c57600080fd5b5056fea365627a7a723158201f22f3786841a11bb0006db1119b6436fc38ece4d9ce86fa17c274186089d8296c6578706572696d656e74616cf564736f6c63430005100040a365627a7a7231582070b9d6093f0ef4d7d975b70171abe973664ab13014ac62626d24cd9981f8ec996c6578706572696d656e74616cf564736f6c63430005100040",
  "source": "pragma solidity >=0.4.21 <0.6.0;\npragma experimental ABIEncoderV2;\n\nimport './Election.sol';\n\ncontract User {\n    address public userPublicAddress;\n\n    constructor(address _userPublicAddress) public {\n\tuserPublicAddress = _userPublicAddress;\n    }\n    event electionCreated(address election);\n    uint public electionId = 0;\n    uint public electionCount=0;\n    mapping (uint => address) public Elections;\n\n    function createElection (string[] memory _nda, uint[] memory _se, string[] memory _candidates) public  {\n\trequire(msg.sender == userPublicAddress, \"Can't create election using other's contract\");\n        Election election = new Election(_nda, _se, _candidates);\n        electionId++;\n        electionCount++;\n        Elections[electionId] = address(election);\n        emit electionCreated(Elections[electionId]);\n    }\n\n}\n",
  "sourcePath": "/home/cipher/Desktop/agora_blockchain/contracts/User.sol",
  "compiler": {
    "name": "solc",
    "version": "0.5.16+commit.9c3226ce.Emscripten.clang"
  },
  "schemaVersion": "3.0.23",
  "updatedAt": "2021-05-29T23:37:41.486Z",
  "devdoc": {
    "methods": {}
  },
  "userdoc": {
    "methods": {}
  }
}